:02000002B0004C
:1040000000400B0032D80B00000006000C00050237
:084010000401B41400000000DB
:044018009CBD0B0040
:1040200081F0004102E000BF83F0004330B54FEA69
:1040300041044FEA430594EA050F08BF90EA020FD6
:104040001FBF54EA000C55EA020C7FEA645C7FEA69
:10405000655C00F0E2804FEA5454D4EB5555B8BF8C
:104060006D420CDD2C4480EA020281EA030382EAFD
:10407000000083EA010180EA020281EA0303362D8F
:1040800088BF30BD11F0004F4FEA01314FF4801C62
:104090004CEA113102D0404261EB410113F0004F74
:1040A0004FEA03334CEA133302D0524263EB43032B
:1040B00094EA050F00F0A780A4F10104D5F1200EC9
:1040C0000DDB02FA0EFC22FA05F2801841F1000124
:1040D00003FA0EF2801843FA05F359410EE0A5F1F8
:1040E00020050EF1200E012A03FA0EFC28BF4CF029
:1040F000020C43FA05F3C01851EBE37101F00045DF
:1041000007D54FF0000EDCF1000C7EEB00006EEBEB
:104110000101B1F5801F1BD3B1F5001F0CD3490875
:104120005FEA30004FEA3C0C04F101044FEA4452CC
:1041300012F5800F80F09A80BCF1004F08BF5FEA53
:10414000500C50F1000041EB045141EA050130BD33
:104150005FEA4C0C404141EB0101013C28BFB1F545
:10416000801FE9D291F0000F04BF01460020B1FA90
:1041700081F308BF2033A3F10B03B3F120020CDA63
:104180000C3208DD02F1140CC2F10C0201FA0CF041
:1041900021FA02F10CE002F11402D8BFC2F1200CA6
:1041A00001FA02F120FA0CFCDCBF41EA0C0190405C
:1041B000E41AA2BF01EB0451294330BD6FEA0404A5
:1041C0001F3C1CDA0C340EDC04F11404C4F1200290
:1041D00020FA04F001FA02F340EA030021FA04F3A2
:1041E00045EA030130BDC4F10C04C4F1200220FAF9
:1041F00002F001FA04F340EA0300294630BD21FA37
:1042000004F0294630BD94F0000F83F4801306BFFC
:1042100081F480110134013D4EE77FEA645C18BFF0
:104220007FEA655C29D094EA050F08BF90EA020F87
:1042300005D054EA000C04BF1946104630BD91EA7F
:10424000030F1EBF0021002030BD5FEA545C05D182
:104250004000494128BF41F0004130BD14F58004C1
:104260003CBF01F5801130BD01F0004545F0FE4135
:1042700041F470014FF0000030BD7FEA645C1ABF6A
:10428000194610467FEA655C1CBF0B46024650EAA1
:10429000013406BF52EA033591EA030F41F40021CD
:1042A00030BD00BF90F0000F04BF0021704730B553
:1042B0004FF4806404F132044FF000054FF0000128
:1042C00050E700BF90F0000F04BF0021704730B5E9
:1042D0004FF4806404F1320410F0004548BF4042BE
:1042E0004FF000013EE700BF42004FEAE2014FEA13
:1042F00031014FEA02701FBF12F07F4393F07F4FEE
:1043000081F06051704732F07F4208BF704793F0F0
:104310007F4F04BF41F40021704730B54FF4607403
:1043200001F0004521F000411CE700BF50EA010206
:1043300008BF704730B54FF000050AE050EA0102AF
:1043400008BF704730B511F0004502D5404261EB1F
:1043500041014FF4806404F132045FEA915C3FF460
:10436000D8AE4FF003025FEADC0C18BF03325FEAFD
:10437000DC0C18BF033202EBDC02C2F1200300FAAE
:1043800003FC20FA02F001FA03FE40EA0E0021FAD3
:1043900002F11444BDE600BF70B54FF0FF0C4CF4C1
:1043A000E06C1CEA11541DBF1CEA135594EA0C0F73
:1043B00095EA0C0F00F0DEF82C4481EA030621EAAE
:1043C0004C5123EA4C5350EA013518BF52EA0335E9
:1043D00041F4801143F4801338D0A0FB02CE4FF09B
:1043E0000005E1FB02E506F00042E0FB03E54FF0CB
:1043F0000006E1FB03569CF0000F18BF4EF0010EC3
:10440000A4F1FF04B6F5007F64F5407404D25FEABE
:104410004E0E6D4146EB060642EAC62141EA555171
:104420004FEAC52040EA5E504FEACE2EB4F1FD0CB3
:1044300088BFBCF5E06F1ED8BEF1004F08BF5FEA31
:10444000500E50F1000041EB045170BD06F00046E3
:1044500046EA010140EA020081EA0301B4EB5C0490
:10446000C2BFD4EB0C0541EA045170BD41F4801188
:104470004FF0000E013C00F3AB8014F1360FDEBFAD
:10448000002001F0004170BDC4F10004203C35DA89
:104490000C341BDC04F11404C4F1200500FA05F30C
:1044A00020FA04F001FA05F240EA020001F00042AD
:1044B00021F0004110EBD37021FA04F642EB060123
:1044C0005EEA430E08BF20EAD37070BDC4F10C044D
:1044D000C4F1200500FA04F320FA05F001FA04F211
:1044E00040EA020001F0004110EBD37041F10001FD
:1044F0005EEA430E08BF20EAD37070BDC4F1200508
:1045000000FA05F24EEA020E20FA04F301FA05F26F
:1045100043EA020321FA04F001F0004121FA04F217
:1045200020EA020000EBD3705EEA430E08BF20EAE7
:10453000D37070BD94F0000F0FD101F00046400021
:1045400041EB010111F4801F08BF013CF7D041EAA3
:10455000060195F0000F18BF704703F000465200A7
:1045600043EB030313F4801F08BF013DF7D043EA78
:104570000603704794EA0C0F0CEA135518BF95EA2E
:104580000C0F0CD050EA410618BF52EA4306D1D1B5
:1045900081EA030101F000414FF0000070BD50EAD4
:1045A000410606BF1046194652EA430619D094EA5E
:1045B0000C0F02D150EA013613D195EA0C0F05D148
:1045C00052EA03361CBF104619460AD181EA03019C
:1045D00001F0004141F0FE4141F470014FF0000054
:1045E00070BD41F0FE4141F4780170BD70B54FF0EF
:1045F000FF0C4CF4E06C1CEA11541DBF1CEA13556F
:1046000094EA0C0F95EA0C0F00F0A7F8A4EB050450
:1046100081EA030E52EA03354FEA013100F0888047
:104620004FEA03334FF0805545EA131343EA126310
:104630004FEA022245EA111545EA10654FEA0026C5
:104640000EF000419D4208BF964244F1FD0404F57E
:10465000407402D25B084FEA3202B61A65EB0305DA
:104660005B084FEA32024FF480104FF4002CB6EB97
:10467000020E75EB030E22BFB61A754640EA0C0017
:104680005B084FEA3202B6EB020E75EB030E22BF57
:10469000B61A754640EA5C005B084FEA3202B6EB98
:1046A000020E75EB030E22BFB61A754640EA9C0057
:1046B0005B084FEA3202B6EB020E75EB030E22BF27
:1046C000B61A754640EADC0055EA060E18D04FEAE5
:1046D000051545EA16754FEA06164FEAC30343EA85
:1046E00052734FEAC2025FEA1C1CC0D111F4801F52
:1046F0000BD141EA00014FF000004FF0004CB6E74B
:1047000011F4801F04BF01430020B4F1FD0C88BFE9
:10471000BCF5E06F3FF6AFAEB5EB030C04BFB6EBF4
:10472000020C5FEA500C50F1000041EB045170BDE7
:104730000EF0004E4EEA113114EB5C04C2BFD4EB14
:104740000C0541EA045170BD41F480114FF0000E98
:10475000013C90E645EA060E8DE60CEA135594EA14
:104760000C0F08BF95EA0C0F3FF43BAF94EA0C0F17
:104770000AD150EA01347FF434AF95EA0C0F7FF48C
:1047800025AF104619462CE795EA0C0F06D152EAE0
:1047900003353FF4FDAE1046194622E750EA4106C4
:1047A00018BF52EA43067FF4C5AE50EA41047FF4D5
:1047B0000DAF52EA43057FF4EBAE12E74FF0FF3C3A
:1047C00006E000BF4FF0010C02E000BF4FF0010C0B
:1047D0004DF804CD4FEA410C7FEA6C5C4FEA430C84
:1047E00018BF7FEA6C5C1BD001B050EA410C0CBFD3
:1047F00052EA430C91EA030F02BF90EA020F002035
:10480000704710F1000F91EA030F58BF994208BF9B
:1048100090422CBFD8176FEAE37040F00100704758
:104820004FEA410C7FEA6C5C02D150EA013C07D1AF
:104830004FEA430C7FEA6C5CD6D152EA033CD3D0FA
:104840005DF8040B704700BF8446104662468C46F4
:104850001946634600E000BF01B5FFF7B7FF002827
:1048600048BF10F1000F01BD4DF808EDFFF7F4FF50
:104870000CBF012000205DF808FB00BF4DF808EDDB
:10488000FFF7EAFF34BF012000205DF808FB00BFFE
:104890004DF808EDFFF7E0FF94BF012000205DF820
:1048A00008FB00BF4DF808EDFFF7CEFF94BF0120D5
:1048B00000205DF808FB00BF4DF808EDFFF7C4FFCE
:1048C00034BF012000205DF808FB00BF4FEA410C17
:1048D0007FEA6C5C02D150EA013C0AD14FEA430CFA
:1048E0007FEA6C5C02D152EA033C02D14FF0000037
:1048F00070474FF0010070474FEA410212F5001275
:1049000015D211D56FF47873B3EB625212D94FEA16
:10491000C12343F0004343EA505311F0004F23FA00
:1049200002F018BF404270474FF00000704750EA55
:10493000013005D111F0004008BF6FF00040704712
:104940004FF00000704700BF4A0011D212F500126C
:1049500011D20DD56FF47873B3EB62520ED44FEAD7
:10496000C12343F0004343EA505323FA02F0704757
:104970004FF00000704750EA013002D14FF0FF3095
:1049800070474FF0000070474FEA4102B2F1E04338
:1049900024BFB3F5001CDCF1FE5C0DD901F0004C26
:1049A0004FEAC0024CEA5070B2F1004F40EB830076
:1049B00008BF20F00100704711F0804F21D113F1A2
:1049C0003872BCBF01F00040704741F480114FEADB
:1049D0005252C2F11802C2F1200C10FA0CF320FA64
:1049E00002F018BF40F001004FEAC1234FEAD32381
:1049F00003FA0CFC40EA0C0023FA02F34FEA4303EB
:104A0000CCE77FEA625307D150EA01331EBF4FF073
:104A1000FE4040F44000704701F0004040F0FE408E
:104A200040F40000704700BFD0B50C4B0022064692
:104A30000F46FFF7B1FCFFF787FF0446FFF732FC94
:104A4000074B0022FFF7A8FC02460B4630463946CA
:104A5000FFF7EAFAFFF778FF2146D0BD0000F03DEE
:104A60000000F04110F8012B11F8013B012A28BF8A
:104A70009A42F7D0D01A7047034613F8012B002A48
:104A8000FBD1181A0138704738B5002200230446BC
:104A90000D46FFF7F3FE28B920462946BDE8384009
:104AA000FFF7C2BF204605F10041FFF7BDFF4042BE
:104AB00061EB410138BD00BF09480A49884208B589
:104AC00005D0094A824202D0121A05F068F9074857
:104AD000074A0021121A05F070F9014808BD00BF0D
:104AE00000E3032014D60B00F0E40320F0E40320DD
:104AF000F0E7032070B5074E074C04F0C1FEA41B7D
:104B0000A4080025AC4200D170BD56F8043B98477C
:104B10000135F7E7CCD50B00F0D50B0001F07EB8DE
:104B200008B500F0EFFEBDE8084004F061BE03F0F8
:104B3000E3BC03F0E1BC03F0E7BC03F0E5BC00001C
:104B400008B5034A03490C2003F022FCFEE700BF2E
:104B500001800B00B0BD0B000078B0FA80F0400976
:104B60007047012303707047014B01221A70704790
:104B700011E30320F0B502F1080385B023F0070329
:104B800000AFADEB030D15460446684605F007F986
:104B90000023214638460DF8053004F0B2F92E49BD
:104BA000384604F0D4F9054638466E4604F05EF9FE
:104BB00045B1684605F0E8F851EC100BFFF79CFE94
:104BC000264B18602146384604F09BF924493846A4
:104BD00004F0BDF90546384604F048F945B13046C1
:104BE00005F0D2F851EC100BFFF7CEFE1D4B18600C
:104BF0002146384604F085F91B49384604F0A7F9E8
:104C00000546384604F032F945B1304605F0BCF8A7
:104C100051EC100BFFF770FE144B1860214638461C
:104C200004F06FF91249384604F091F90446384609
:104C300004F01CF96CB1304605F0A6F851EC100BED
:104C4000FFF7A2FE07EE900A0A4BFDEEE77AC3EDEE
:104C5000007A1437BD46F0BDC5BD0B0090E60320B9
:104C6000E5BD0B0094E6032003BE0B008CE6032099
:104C700025BE0B0088E60320436913B183690C301D
:104C80001847704713B500210446084603F058F949
:104C90000023204601A9019303F06AF9019C0CB19D
:104CA000012323710021012003F04AF92CB123686C
:104CB00020469B6898470023237102B010BD000076
:104CC00008B5084803F019F858B1064803F02AF867
:104CD000054B044883ED000A03F056F8034B83EDBF
:104CE000000A08BDF0E4032084E6032080E60320E8
:104CF000012A02D1016000207047022A04BF0B681C
:104D00000360F8E70368184707B5806830B10023EF
:104D1000CDE900131A46022103F032F903B05DF821
:104D200004FB37B505460C460021FFF7EDFFA868E8
:104D300030B10023CDE900431A46194603F020F9AB
:104D400003B030BD08B503F063F9034B1860BDE84C
:104D5000084003F059BB00BF28E7032010B5836863
:104D6000044613B1032201469847204610BD0000B7
:104D700038B50F4B0360836804469BB16FF0004168
:104D8000FFF7C2FFA068002103F02AF9237903F09E
:104D9000FF0513B103F0CCF8F8E7A068294603F04B
:104DA000DFF8A56004F10C00FFF7D8FF204638BDFE
:104DB00040BF0B0010B50446FFF7DAFF20461C2168
:104DC000FFF7BBFE204610BDF0B58C460025144908
:104DD000057104468560016092E8030085B002AF6A
:104DE00004F10C0687E8030096E8030082E803005C
:104DF00097E8030086E803009168A0696161D168C3
:104E00009560D060A161CDE90035064A2346614630
:104E100004F1080003F09CF8204605B0F0BD00BF87
:104E200040BF0B00854C0B0003682BB142689342D6
:104E300002D2184604F0ABBF0020704738B50568B1
:104E4000044645B143689D4205D22846FFF714FE4B
:104E5000013005442560204638BDF8B50446476852
:104E60000D4621B903687A1C4260D955F8BD084641
:104E7000FFF702FEA368461CF2199A42F6D8206892
:104E800032462946384404F08AFF60683044606046
:104E9000ECE7000038B504460B46D0E9010125686F
:104EA000044A091A284403F03FFB636801300344B5
:104EB000636038BD42BE0B0038B504460B46D0E9EE
:104EC00001012568044A091A284403F02DFB636890
:104ED00001300344636038BD45BE0B0010B5074C7C
:104EE000204601F067FD0121204601F0AAFB0022C7
:104EF0004FF00113C4E9042310BD00BFD4E5032023
:104F0000F8B5FFF7EBFF0D490D480E4C0E4F0C4E58
:104F100003F082FD00252368AB4205DD39463046AB
:104F200003F07AFD0135F6E70133032BC8BF0023F8
:104F300023600348BDE8F84001F0AABF49BE0B005A
:104F4000D4E503207CE6032054BE0B0008B5002303
:104F50004377006804F0B2FABDE8084002F048BFA9
:104F60002DE9F0438F188FB0B942CDE905170646F9
:104F70008946904680F0C28005A80D88FFF75EFF45
:104F80000368BB4280F0BA8005980378412B49D171
:104F9000013004F0FCFE052837DDFF2447F27623BC
:104FA0009D4200F0D38041D847F261239D4200F03A
:104FB000A88047F264239D426BD046F670539D4211
:104FC00041D1784D784EDFF8F4810598B84280F0F1
:104FD00095800378412B4BD1013004F0D8FE052891
:104FE00039DDFF2405A8FFF729FFDDF814902946D5
:104FF0004846FFF737FD014600283DD1204604F022
:10500000AFFC05A8FFF71AFFDFE70598013004F0B1
:10501000BEFE0028C1DB0598013004F0B8FE0E305A
:10502000C4B2BBE705A8FFF7FFFEF9E747F26473D8
:105030009D424FD047F276739D4200F0978047F231
:1050400061739D426FD00023CDE9013302220092AB
:10505000728B19463AE00598013004F098FE00285A
:10506000BFDB0598013004F092FE0E30C4B2B9E700
:1050700005A8FFF7D9FEF9E731464846FFF7F2FCED
:1050800028B141464846FFF7EDFC0028B9D101217F
:10509000B4E70AAB4549079307A810230025CDE9DB
:1050A0000853FFF7DAFE07A82146FFF7F3FE204674
:1050B00004F080FC014607A8FFF7FEFE089BCDE93F
:1050C0000155013B0093079B2A461421304600F00E
:1050D00085FA13E005A8FFF7B1FE03689F420DD9DA
:1050E000A4B20121204604F03BFC05A8FFF79CFE7A
:1050F000011E18BF0121204604F043FC0FB0BDE89B
:10510000F0830AAB079307A8102329490025CDE9AE
:105110000853FFF7A2FE07A82146FFF7BBFE204673
:1051200004F05BFCC6E705A8FFF788FE03689F4212
:10513000E4D9A4B20121204604F012FC05A8FFF72F
:1051400073FE0146204604F05FFCD7E720468DF849
:10515000284002F04FFE03460AA823B1154A9342A5
:1051600001D09847CAE702F041FEC7E705A8FFF75C
:1051700065FE059B8DF81C40A3EB0901A8EB01011E
:105180002046CDE90A310C9102F03EFE03460AA901
:1051900007A823B1084A934201D09847AEE702F02E
:1051A00026FEABE756BE0B0059BE0B0061BE0B00DE
:1051B00064BE0B00ED7D0B00EF7D0B005DBE0B00B0
:1051C0002DE9F0418CB004AF044605220068391D7A
:1051D00003F037FEA8B3052804D000202037BD46D1
:1051E000BDE8F081B7F8050002F0D2FFA7F805008E
:1051F000B7F8070002F0CCFFB7F80530A7F80700B2
:105200008046002BE9D03B7923BB02F0EDFD02463E
:10521000E060607FB7F80730C0B9B7F80510012922
:1052200014D1092B0FD0C82B01D0042BD6D10125C6
:1052300062612046657700F081FAFFF783FD02F096
:10524000D7FD0120CAE703236377C7E7581F18BFBC
:105250000120C3E7B0F5806F03D92046FFF776FE43
:10526000EFE700F1080323F007036E46ADEB030DF3
:1052700004AD02462946206803F0E3FD80454FF067
:1052800000007FD1B7F80730E85402F0ADFD3B795C
:10529000E060142B00F0A68048D80F2B00F0A2800D
:1052A00007D8022B48D0062B51D02046FFF74EFEE0
:1052B00058E0112BF9D100233B70B7F807302B448D
:1052C0009D42C7E903534DD207F10C00D5F8008089
:1052D000FFF7B4FDFB68B7F807105D1B4D1BC7E96E
:1052E00005357B68FD61C3F30F236383644B9845E9
:1052F00000F0BF8000F28C80A3F57F236FF4007272
:105300001344984500F09D8079D8A3F50033063BFF
:10531000984500F09C8003F50033033398456BD12A
:1053200007F11401384602F062FD65E0292B1BD01D
:10533000372B17D01D2BB8D1637F43B90123637777
:10534000204600F0FBF9FFF7FDFC02F051FD0023C1
:10535000C821B7F805200091CDE901331946204650
:1053600000F03CF901200DE0A3681BB9402003F0D8
:10537000C3F8A060B7F80780A8444545C7E90558B9
:1053800002D30020B54629E729464022A06804F050
:105390005FFDA368002583F83F5007F11400FFF775
:1053A0004DFD036898451BD9786920B1BB699842C7
:1053B00014D204F0F0FC85B2206804F07FF8236872
:1053C000A2685A631D870023637702F00DFDA0F5E4
:1053D0009C500838C4E903006061C3E72846EAE747
:1053E0005025E9E77B68B7F80720C3F30F236383F1
:1053F00029462046FFF7B4FD00236383B2E7214B23
:105400009845F9D107F11401384602F0F0FCF3E7B2
:105410001D4B984521D003F19F6303F5003303F53D
:10542000807398451FD003F16E4303F5302303F5D5
:1054300086739845E0D107F11401384602F0D7FC95
:10544000DAE707F11401384602F0D1FCD4E707F19E
:105450001401384602F0CBFCCEE707F114013846C0
:1054600002F0C5FCC8E707F11401384602F0BFFCA2
:10547000C2E707F11401384602F0B9FCBCE700BFEF
:10548000766673006462670061636F6E2DE9F041B8
:1054900004468CB00D46FFF755FC637F022B1ED0EF
:1054A000237F628B0133DBB22377AAB9022B13D897
:1054B000206803F0CBFEA8B125B9206803F0A4FF53
:1054C00000280FDD2046FFF77BFE0028F5D120687D
:1054D00003F0F4FF02F08CFC237F013B23770CB038
:1054E000BDE8F08102F080FC0546206803F0AEFEC6
:1054F000677F012F064624D120B965612046FFF75A
:1055000025FDE9E7E3684FF21862EB1A9342F5D8FC
:105510004AF6C872934203D82369EB1A9342DBD947
:10552000636941F27072EB1A9342D5D90023CDE939
:10553000013300931A460621204600F04FF86561BA
:10554000CAE7002FC8D16369EB1A40B141F270720B
:105550009342C1D9206803F0B1FF6777BCE741F2FD
:1055600088329342B8D9206803F0A8FFD4F800C06D
:10557000DCF834E0BCF83880BEF1000F1BD03346B5
:1055800042467146604603F0E3FD0128D7D16368C7
:105590000593012518462583FFF76EFA0022CDE911
:1055A0000122059B00902A461D21204600F016F896
:1055B0002369636190E7084B06930CF120070FCF36
:1055C00007AE0FC63B6833704246734606A9604675
:1055D00003F09EFED9E700BF90CF0B002DE9F04FFE
:1055E00083B000AF044600683D6B88461646994676
:1055F000EB4603F02BFE002800F08180B8F11D0F70
:1056000004D84D4B23FA08F3DB0702D4637F012B48
:1056100075D146B9668B36B9238B01339BB2002B0B
:1056200072D02383268BA8F10C03082B16D8D4E95B
:105630000323934238BF134603F1420A02F0D4FB1E
:10564000AAEB0000002861DB00212046FFF71EFFC7
:1056500002F0CAFBAAEB00000028F5DAB9F1000F4E
:105660005BD06B1D7A6B002ABA6B08BF002203EB7C
:10567000020A0AF1070323F00703ADEB030D3046DE
:105680008DF80080C7F804D002F08AFDBB6BADF83E
:105690000100E81880B202F083FDADF80300B9F113
:1056A000000F3CD0002D3AD02A4649460DF10500A6
:1056B00004F075FB681D7B6B3BB1BB6B2BB11A46CD
:1056C0007B68796B184404F06AFB002555452AD2A3
:1056D000AAEB05027B682068B2F5806F28BF4FF403
:1056E0008062591903F065FC0646002002F07AFB3F
:1056F000BEB9206803F0E2FE667702F079FB0C3752
:10570000DD46BD46BDE8F08F01238AE7217F0029F1
:10571000A4D12046FFF7BAFEA0E70523A2E70520A3
:10572000C9E73544D2E703D02046FFF70FFCE6E790
:1057300002F05AFB2061E2E74500002030B599B045
:1057400008AB044605930025402305A80B49CDE985
:105750000653FFF782FB05A80949FFF77EFB069B6E
:105760000293059B0193652300932A46054B112163
:105770002046FFF733FF19B030BD00BF67BE0B00F6
:105780006CBE0B0054BF0B0030B5ADF2244D08AB1E
:1057900000240546059305A84FF48063CDE9064330
:1057A000FFF75BFB069B013B0093CDE90144059BA2
:1057B000224640212846FFF711FF0DF2244D30BD4F
:1057C00070B52DED028BB0EE408AF0EE608AADF53B
:1057D000846D08AB002405460E46059305A84FF4DA
:1057E00080631349CDE90643FFF737FB314605A82F
:1057F000FFF750FBDDE9063105980E4AC91A8DED19
:10580000008B184402F090FE431C06980344069354
:10581000013B0093CDE90144059B22461421284613
:10582000FFF7DCFE0DF5846DBDEC028B70BD00BF93
:105830007ABE0B007DBE0B002DE9F041ADF5846D05
:1058400008AB002405460E46059305A84FF4806377
:10585000154910EE108ACDE90643FFF7FEFA05A8B8
:105860003146FFF717FBDDE90661059B40468F1BBC
:105870001E44FEF739FD0D4ACDE900013946304698
:1058800002F052FE431C069803440693013B00932A
:10589000CDE90144059B224614212846FFF79EFED0
:1058A0000DF5846DBDE8F0817ABE0B0083BE0B0060
:1058B000F0B5ADF2244D08AB002405460F46059324
:1058C00005A84FF480630E491646CDE90643FFF75D
:1058D000C4FA394605A8FFF7DDFA314605A8FFF7F7
:1058E000D9FA069B013B0093CDE90144059B224672
:1058F00014212846FFF772FE0DF2244DF0BD00BFC3
:105900007ABE0B0070B5A748A74C86B002F0F7FA34
:10591000A6480021FFF7BAFD237833B1A4486FF001
:105920000041FFF7F1F900232370A248694601F016
:105930002BFCF8B1A04BA14C1A682168BDF90230CC
:105940009F4D5B1A002BB8BF5B42934208DCBDF948
:10595000003029685B1A002BB8BF5B429A4203DA19
:1059600098499248FFF710FFBDF900302B60BDF950
:1059700002302360944801F0B9FD002800F0A980AE
:10598000924C914801F089FF237833B1904A9149B4
:105990008D4801F026FF00232370062004F00AF84A
:1059A0008D4C002800F0A4808C4A1378002B40F026
:1059B0009F80237883F001032370012313702378E1
:1059C000002B40F0A480804801F090FD00287ED09C
:1059D000FFF784FA8249734803F01EF8814B1C6874
:1059E000002C80F28E802D216E4803F019F8614260
:1059F0000A226C487C4E7D4D03F02BF87C496948A7
:105A000003F01DF87B49674803F006F896ED000A9D
:105A10006448022103F004F97749624803F00FF863
:105A20007649604802F0F8FF2C68002C6BDA2D21D3
:105A30005C4802F0F5FF61420A225A4803F009F877
:105A40006F49584802F0FBFF6E49564802F0E4FFE8
:105A50006D4B1C68002C58DA2D21524802F0E0FFF3
:105A600061420A224F4802F0F4FF65494D4802F0B6
:105A7000D3FF4C4801F00CFA644BD3ED007AB2EE40
:105A8000027A67EE877AB1EE047AC7EE877A17EE6C
:105A9000900AFEF729FC00225D4BFEF7C7FA41ECA5
:105AA000100B42480021FFF78BFE5A4B3F4893ED05
:105AB000000A0121FFF7C0FE96ED000A3B480221D3
:105AC000FFF7BAFE2A6839480321FFF7F1FE06B056
:105AD00070BD02A802F0A0FC02993B4801F0F6FD5F
:105AE00002A803F0C3F94C49374802F01EF854E706
:105AF000062003F05FFF00287FF461AF374B18707A
:105B00005DE7214674E7214696E72146A9E7FFF7BE
:105B1000E5F93349234802F07FFF3C4BD3ED007A8F
:105B2000B2EE027A67EE877AB1EE047AC7EE877A30
:105B300017EE900AFEF7D8FB0022354BFEF776FAF7
:105B400041EC100B0221174803F079F82849154859
:105B500002F075FF2B49134802F05EFF2D4B1148F0
:105B600093ED000A022103F05BF825490D4802F08D
:105B700053FF0C4801F08CF91A4B0C481A680021AD
:105B8000FFF796FE204B09481A680121FFF790FEA7
:105B9000154B064893ED000A0221FFF74DFE134B0B
:105BA0001A6890E7D4E5032010E3032004E50320FE
:105BB0009CE6032060E503200CE3032008E30320B8
:105BC00004E3032089BE0B0074E5032011E30320E6
:105BD0009FBE0B0094BE0B0000E3032098E6032059
:105BE000BDBE0B0090E6032094E603208CE6032064
:105BF00078BE0B00CBBE0B00D8BE0B00DCBE0B008A
:105C0000EEBE0B00F0BE0B0088E6032084E6032006
:105C10000000404080E60320A7BE0B00F0B54D4CCD
:105C200085B00321062003F09BFE204602F03EF9DA
:105C3000204600F0BFFE204601F02AF9012120464F
:105C400000F0FFFC00224FF00113C4E90423684672
:105C500002F0E2FB0099404801F038FD684603F08D
:105C600005F93E486FF00041FFF75BF820463C49DC
:105C7000394C02F0D1FE3B4A1368013313602046D1
:105C800001F034FC50B9684602F0C6FB009920468A
:105C900001F01CFD684603F0E9F8F0E732492E48B0
:105CA000324C01F042FF03F0F1FE314902F000FDF9
:105CB00003F0ECFE02F000FD40F6B83002F092F87E
:105CC0002C4B636002F090F8A0F59C5023682A4AA0
:105CD0005A630838C4E90300502260611A8700261D
:105CE00044F24F67206803F0E9FB667702F07CF826
:105CF0000546637F012B0CD002F076F8401BB842BA
:105D000004D800212046FFF7C1FBF2E7637F012B97
:105D1000E8D11A481A4C6FF00041FFF702F86FF013
:105D200000411848FEF7FDFF684601F0FBF95021DD
:105D3000684601F004FA1448694601F04FFA03F08E
:105D4000A5FE0146204601F061FF0028F7D005B00E
:105D5000F0BD00BFD4E5032074E503209CE60320DA
:105D600049BE0B007CE60320A7BE0B0004E5032020
:105D7000A0860100FBBE0B001CBF0B0044E6032005
:105D8000F0E4032060E6032060E5032070B52E4DAB
:105D90002E4E86B0284603F0DBFB05F11C0002F016
:105DA00005FD2B4B0024C3E90054C3E90244C3E9B9
:105DB00004446C632C879C619C832146012002F083
:105DC00007FB40F25B72234B234900942348244D88
:105DD00001F0B0FA0721234802F03AF8224B5C7137
:105DE00003F054FE224601460823204801F052FAEF
:105DF0001F4B029302AA234647F230511D480596D5
:105E00000495FEF7E1FF02A8FEF7A8FF1A4B0293E4
:105E100002AA23464FF4FA711848CDE90456FEF75A
:105E2000D3FF02A8FEF79AFF154B029302AA23465E
:105E30004FF4FA611348CDE90456FEF7C5FF02A8F6
:105E4000FEF78CFF06B070BD24E50320054D0B0066
:105E500004E50320754B0B0028BF0B0074E50320FD
:105E6000F14C0B00D4E50320F0E4032060E50320AF
:105E7000694B0B0060E60320014F0B009CE60320FA
:105E8000C14C0B0044E603202DE9F04F85B01F46BE
:105E9000BDF93880BDF83C30A8EB0209A7EB010A38
:105EA000B9F1000FB8BFC9F10009BAF1000FB8BFCE
:105EB000CAF1000AD14583460C46154604DD3A4630
:105EC0002C4647460D469046BC4205DD2A464546CF
:105ED000904622463C4617463E1BB2B20092A8EBC3
:105EE000050282EAE271A1EBE271C6F3C03202FA66
:105EF00086F64545B4BF01224FF0FF32019176107E
:105F00000292BC421CDCDBF800200393D145D2F89E
:105F10001880C7BF294622462A4621465846C04710
:105F2000019A039BB61AB1B236B2002E05DA029A74
:105F30001544009A56182DB236B2013424B2E0E767
:105F400005B0BDE8F08F704710B404682469A4461A
:105F50005DF8044B604730B40468BDF80850029502
:105F6000A46BA44630BC604730B40468BDF8085048
:105F70000295E46BA44630BC604770B4BDF90C5088
:105F8000BDF810600468CDE90356246CA44670BCCB
:105F900060472DE9F3411C460368BDF820805B692A
:105FA00005461646013C34440F4624B298472B68F8
:105FB000CDF8048000949C6A28463B463246394618
:105FC000A0472B68DB6A284602B0BDE8F0411847BD
:105FD0002DE9F3411D460368BDF820805B69044646
:105FE00017460E469847CDE9007822686B1E334469
:105FF000956A20461BB23A463146A8472368DB6AB9
:10600000204602B0BDE8F04118472DE9F3471E468F
:106010000368BDF928905B69BDF82C800C460546E5
:10602000174698472644B4422B680BDACDF8008017
:10603000D3F820A021464B463A4628460134D047A3
:1060400024B2F0E7DB6A284602B0BDE8F047184703
:1060500013B502680191B0F90E100091146CB0F9FB
:106060000C3000221146A04702B010BD2DE9F743C5
:1060700099421646BDF92870BDF82C9002688046FA
:106080000D461C4613D1BE42C8BF3346CDF82890FA
:10609000C4BF3E461F467B1C946B9B1B1BB2324603
:1060A00029464046A44603B0BDE8F0436047BE42DF
:1060B0000AD19942C2BF0B4625461C46631CCDF847
:1060C0002890D46B5B1BE9E753699847CDE90079C9
:1060D000D8F8003040469F6A324623462946B847E2
:1060E000D8F80030DB6A404603B0BDE8F0431847FB
:1060F0002DE9F3471D460368BDF82C805B69BDF9A7
:10610000289004460F46164698472368CDF800802D
:10611000D3F824A032462B4639462046D047236880
:10612000CDF8008009F1FF323244D3F824A039467B
:106130002B46204612B2D0472368CDF80080D3F812
:1061400020A032464B4639462046D0476B1ED9190F
:106150002368CDF800801D6A20464B46324609B2BE
:10616000A8472368DB6A204602B0BDE8F04718471D
:10617000704701F00303B0F90A208376C907B0F92C
:10618000083059BF8381C2818281C381704700007A
:1061900030B54281C281074A074D018100248181C7
:1061A0004FF0FF31C0E905124460056004610477D7
:1061B000046230BD01010001C4C40B002DE9F04FA1
:1061C00089B0CDE902120268BDF948800493BDF997
:1061D0004C3052690593BDF850A00446904718F121
:1061E00007024FF0000648BF08F10E024FEAE20B2B
:1061F00001963546039B019ABDF904109A18059B38
:106200008B4212B227DD049B33444FF00009069302
:106210000FFA89F080451FFA89F117DD4F0705BF96
:10622000069BC0106D001D5C18BFEDB22B060AD591
:10623000029B206807921944836909B21F462046D1
:106240005346B847079A09F10109E1E7019B013379
:1062500001935E44CEE72368DB6A204609B0BDE8BF
:10626000F04F18472DE9F04F2DED028B91B01646F7
:10627000026ABDF874809DF878509DF87C400391C7
:106280001F46BDF8703004938346002A40F0C58055
:10629000B0F90C308B4240F34C81B0F90E30B34270
:1062A00040F34781062313FB0513002B40F3418184
:1062B00006EBC403002B40F33C81037F1BB9AF2FD7
:1062C00084BF0137FFB2DBF8003058465B6998475E
:1062D0000522099200220592984A07EB8703D318FA
:1062E0000C93B3B20693059A0C9B9B5C0793ABB2DD
:1062F0000B93BDF80C300893039B02FB05F919FAC8
:1063000083F90FFA89F308EE103A08230A93039BE6
:1063100002EB030A4FF000090FFA8AFA079ADBF83A
:106320000030D20752D5012D1FFA89F23ED1012C3F
:106330003CD19B6906991F46049B0A4412B2514600
:106340005846B84709F101034FFA83F9079B5B08E8
:1063500007930A9B013B13F0FF030A93DED1059FCD
:1063600001377BB20593099B013B13F0FF030993AF
:10637000B9D1049B43450FD0012DDBF800303BD150
:10638000012C39D10899CDF8008005311C6A3246BC
:10639000082309B25846A047DBF80030DB6A5846AC
:1063A00011B0BDEC028BBDE8F04F1847069914FB05
:1063B00002F20A44049901910094DB6918EE101A64
:1063C0001F4612B22B465846B847BBE7049A4245CF
:1063D000B8D0012D1FFA89F207D1012C05D19B6994
:1063E00006991F460A444346A8E70699CDF804805B
:1063F00014FB02F20A44DFE70B9ACDF8048002EBAB
:106400008201089AE4000A4411460094DC6932468D
:106410002B4609B25846A047BEE7137A5168126866
:106420000B92FF1AFFB201EBC70331F83720069237
:106430009A780992DA780C92012D93F9052093F954
:1064400006A00A9201D8012C57D9BDF9283008932B
:106450000FFA8AF30793DBF8003058465B699847D8
:10646000B3B24FF000080E931AFA86F3C1464746BE
:106470000F930C9B9F428FD2079B0E9A3B4403FBCA
:106480000423002205920F9A1BB202EB070A08EEC2
:10649000103A0FFA8AFA4346099A0599914241D275
:1064A0005A1CD2B25B070D9207D1069B06990B9A34
:1064B00001339BB212F80190069319F0800F12D0AD
:1064C000012DDBF80030BDF80C101AD1012C18D1C9
:1064D0000A9A9B691144059A11441E465246049B30
:1064E00009B25846B047059E0136F3B24FEA490952
:1064F00005935FFA89F90D9BCEE70023CDE90733B9
:10650000A9E70598089A024402FB0511049ACDE90F
:106510000042DB6918EE102A1E4609B22B46584687
:10652000B047E0E7099B013798445FFA88F8FFB26B
:106530009FE711B0BDEC028BBDE8F08FBBBF0B0035
:10654000F0B5026A85B004460B46002A34D10A2908
:1065500008D1438A0282427E03EBC2036382012098
:1065600005B0F0BD0D29FAD0E17E007E657E71B1E7
:10657000B4F91060062111FB0061B4F90C60B1425E
:10658000C1BFB4F91210228201EBC5026282E28A15
:106590000192A28A0092CDE90205B4F91220B4F961
:1065A00010102046FFF75EFE237E228A03EB430392
:1065B00002EB43032382D2E70A2907D10023038297
:1065C000417E927A438A01FB0233C7E70D29C6D088
:1065D000157AA942C3D3517A9942C0D351685D1B41
:1065E000EDB201EBC505A87828B3E97819B3E17ECF
:1065F000267E677E91B195F905100844B4F9101014
:1066000006FB0011B4F90C00814207DD0020208256
:10661000B4F91210927A02FB07126282E28A0192A6
:10662000A28A0092CDE90267B4F91220B4F91010E1
:106630002046FFF717FE2979227E238A01FB0233C9
:10664000B8E7012938BF01210176417670477047CC
:1066500010B510210446FEF770FA204610BD0EB4A6
:1066600003B503AB002153F8042B019302F0EAFABF
:1066700002B05DF804EB03B07047000073B5044648
:1066800008462279A36832B1A3B90B4902B0BDE82C
:10669000704002F0C1B9094A267B094D0949647B63
:1066A000012E18BF2946CDE900140749FFF7D7FF8F
:1066B00002B070BD054AEFE725C50B00D7BE0B0041
:1066C00021C50B001DC50B003BC50B0014C50B00FD
:1066D00010B5044B03600446C06A08B101F014FF12
:1066E000204610BD14CA0B0010B50446FFF7F0FF9A
:1066F00020465021FEF721FA204610BD002910B592
:106700004BDBB0F90C408C4247DD002A45DBB0F989
:106710000E40944241DD847E022C1FD0032C26D0F3
:10672000012C04D10489D24314440A4621B2012B1E
:1067300023D0022B32D083BB002A13460489C06ABF
:10674000B8BFD31DDB1013FB041102F007020123B5
:106750009340425C22EA030242541EE00489013C59
:10676000611A4489D243224409B212B2DFE7448954
:10677000013C641A114622B2D9E7002A0489134663
:10678000B8BFD31DDB1013FB0411C36A02F007006E
:1067900001228240585C02435A5410BD002A13461D
:1067A0000489C06AB8BFD31DDB1013FB041102F0CB
:1067B0000702012303FA02F2435C5A40CCE70000CF
:1067C00070B504461D460026FFF7E2FC114B23601E
:1067D000666215B903F05AF90546FF2384F8333091
:1067E00084F836309DF9103084F837300A4BA363B3
:1067F000012384F83C30059BA3644FF6FF72069B8F
:10680000A286C4E90A562664A4F84460E3642046DC
:1068100070BD00BF14CA0B0060C50B00F8B504467C
:10682000806A0D4690B194F9301001F07BFFA06AA8
:10683000036800219B689847A06A036829469B6803
:106840009847A06ABDE8F84001F073BF94F935306D
:10685000014698B203F095F8606A20B12946BDE878
:10686000F84002F0D3BA0826802794F9330005EAED
:10687000070180B203F085F894F93400012180B259
:1068800003F07FF894F93400002180B203F079F826
:10689000013E4FEA5707E8D1F8BD38B50446806A93
:1068A0000D4680B1A16C01F003FF002D204614BFFE
:1068B000A721A621FFF7B2FFA06A88B1E16CBDE86D
:1068C000384001F0F5BE606A18B104F1380102F0F9
:1068D0002FFA94F93600002180B203F052F8E4E771
:1068E00094F93600012180B203F04BF8606A18B1C8
:1068F000BDE8384002F002BA38BD2DE9F84304463D
:10690000806A0D468F1840B394F9301001F00AFFE9
:10691000A06A036800219B6898470126AF42A06ADD
:1069200017D01F2E0CD901F004FF94F93010A06A83
:1069300001F0F8FEA06A036800219B6898470126D1
:10694000A06A15F8011B036801369B689847F6B2E8
:10695000E4E7BDE8F84301F0ECBE94F935300146B8
:1069600098B203F00EF8BD4222D0606A15F8019B80
:1069700018B1494602F04AFAF5E708264FF08008B8
:1069800094F9330009EA080180B202F0FAFF94F9A1
:106990003400012180B202F0F4FF94F934000021A8
:1069A00080B202F0EEFF013E4FEA5808E8D1DAE784
:1069B000BDE8F883B0F90A30DA1D48BF03F10E02D2
:1069C000B0F90830C06AD2105A43002103F0F5B97B
:1069D0002DE9FF411E46C36A9DF8288004460F46F4
:1069E0001546C3B12046FFF7E5FFB4F90A00B4F934
:1069F0000810202821DC202301222038CDE9013293
:106A000000EBD07073237339009301EBD171894B84
:106A100040F34F0221E0B0F90A30D81D48BF03F11E
:106A20000E00B4F90830C010584301F065FDE06273
:106A30000028D7D104B0BDE8F0814038C0F3C0329F
:106A400002FA80F240230120CDE90130522352396D
:106A50000093794B01EBD1715210204641F34F0165
:106A6000FFF7ACFBA06A84F83170002878D0002DC5
:106A700074D1B4F90A30202B0CBF3C253D2584F895
:106A80003050B8F1000F01D001F016FEFEB194F9BC
:106A9000370000281BDB012180B202F061FF94F96E
:106AA0003700012180B202F06CFF012001F06CFD83
:106AB00094F93700002180B202F063FF0A2001F050
:106AC00063FD94F93700012180B202F05AFFA06AF9
:106AD000002874D0A16C01F0EBFD04225749204638
:106AE000FFF70BFF61890139C9B22046FFF796FE17
:106AF000534904222046FFF700FF94F93130012B5F
:106B00000CBF102114212046FFF788FE04224D49B6
:106B10002046FFF7F2FEA3684B4A93425CD14B49F3
:106B200004222046FFF7E9FED9212046FFF776FE32
:106B300094F93130012B0CBF2221F1212046FFF7BF
:106B40006DFE204642490622FFF7D7FEA06A0028C4
:106B500063D0E16C01F0ACFD01206BE76DB28EE714
:106B600094F93500012180B202F0FAFE94F9360062
:106B7000012180B202F0F4FE94F93600012180B2C6
:106B800002F0FFFE656A3DB1B8F1000F3FF47EAF41
:106B9000284602F09FF879E794F93300012180B28A
:106BA00002F0DEFE94F93400012180B202F0D8FE3A
:106BB00094F93400294680B202F0E3FE66E7606A89
:106BC00018B104F1380102F0B3F894F9360000214D
:106BD00080B202F0D6FE80E71E4A93420ED11E49D3
:106BE00003222046FFF789FE94F93130012B0CBFB8
:106BF0009F21CF212046FFF711FE95E7174A9342C8
:106C000092D1174903222046FFF777FE94F93130DD
:106C1000012B0CBF1021AF21ECE794F936000121C4
:106C200080B202F0AEFE606A002895D002F066F8ED
:106C300092E700BF2CC80B006CC50B0074CA0B0098
:106C400078CA0B007CCA0B008000200086CA0B00AB
:106C500080CA0B00800040008ACA0B006000100050
:106C60008DCA0B0070B5002ABDF810503DDBB0F99D
:106C70000A40944239DD0029BEBF5B181BB20021D7
:106C8000B0F90840CE18A642C4BF631A1BB2002B4D
:106C90002BDDC06AD61014FB0611014402F0070078
:106CA00001228240012DD2B216D0022D0BD0E5B9BF
:106CB000D243D2B20B44994217D011F8010B1040C5
:106CC00001F8010CF7E70B4499420ED011F8010BC3
:106CD000504001F8010CF7E70B44994205D011F838
:106CE000010B104301F8010CF7E770BDF0B5002966
:106CF000BDF8145076DBB0F90860B14272DA002AB0
:106D0000BEBF9B181BB20022B0F90A40D718A74299
:106D1000C4BFA31A1BB2002B64DDC2F3C404C76A4C
:106D200016FB041612F00702DBB207EB060423D0B1
:106D3000C2F10802D2B22D4993423CBF4FF0FF0C82
:106D4000A2EB030E895C3CBF4CFA0EFC0CEA01017D
:106D5000012D07D0022D2ED04DB917F806C02CEA10
:106D6000010103E017F806C041EA0C01B95593424E
:106D700038D3B0F908100C449A1AD2B2072A0ED9A7
:106D8000022D1DD113462178C9432170083BB0F96B
:106D90000810DBB2072B0C44F5D802F007020AB347
:106DA000134B012D9B5C1AD0022D1CD0D5B9227833
:106DB00022EA030315E017F806C081EA0C01D5E7C3
:106DC000291E18BF01214942C9B213462170083B50
:106DD000B0F90860DBB2072B3444F7D8DDE722783E
:106DE00013432370F0BD22785340FAE764CA0B00C6
:106DF0006CCA0B0070B41446827EBDF80C60022A87
:106E00000DD0032A18D0012A11D10289E443144479
:106E100024B203960A46214670BCFFF767BF428939
:106E20000589E44319441444691A24B209B203964B
:106E3000224670BCFFF716BF45891944691A09B28A
:106E4000E7E730B41446827EBDF80850022A0DD020
:106E5000032A18D0012A11D1E2180489A41A24B2F5
:106E600002950A46214630BCFFF7FCBE0289C943A1
:106E70001144E2184489A41A09B224B202952246A8
:106E800030BCFFF733BF4289C943114409B2E7E779
:106E90002DE9F8430446806A002842D0A16C01F035
:106EA00007FC474905222046FFF727FD21890139C4
:106EB0002046C9B2FFF7B2FCB4F90A30DE1D48BF64
:106EC00003F10E06D4E90A052389F61013FB06F632
:106ED00015FA86F600283AD094F9301001F022FC19
:106EE000A06A036840219B6898470127B542A06AC1
:106EF00024D01F2F0CD901F01CFC94F93010A06A8B
:106F000001F010FCA06A036840219B6898470127A4
:106F1000A06A15F8011B036801379B689847FFB208
:106F2000E4E7606A18B104F1380101F001FF94F957
:106F30003600002180B202F024FDB2E701F0F9FB37
:106F4000A06A78B3E16CBDE8F84301F0B1BB94F9F5
:106F50003500012180B202F014FDAE42F0D0606A2B
:106F600015F8019B18B1494601F050FFF5E70827D5
:106F70004FF0800894F9330009EA080180B202F06A
:106F800000FD94F93400012180B202F0FAFC94F97A
:106F90003400002180B202F0F4FC013F4FEA5808AF
:106FA000E8D1DAE794F93600012180B202F0E9FC79
:106FB000606A18B1BDE8F84301F0A0BEBDE8F883EF
:106FC00090CA0B0000210A22C0E90012704700237A
:106FD00010B50446C171837188B202F0EBFC08B1B0
:106FE0000323A37101F014F8206010BD38B50C46DE
:106FF00005461146A0B202F0B3FC21462846BDE882
:107000003840FFF7E4BF38B50446C07902F0D2FC3F
:10701000A579003825F0080318BF0120C5F3400505
:107020008542A3710AD000F0F3FFA379206083F0BA
:107030000203A371A079C0F3C00038BD00F0E8FFDF
:107040002368C01AA3889842F4D3A37903F00103FC
:10705000AB42EFD000F0DCFFA379206083F00103A6
:1070600043F00803E5E7704710B514210446FDF727
:1070700064FD204610BDF8B50E46017C074641F080
:107080001801C0681D46144601F048FBF868012D40
:10709000036888BF46F080069B68314698472544C0
:1070A000AC42F86805D0036814F8011B9B68984748
:1070B000F6E701F03EFBB0FA80F04009F8BDF8B504
:1070C0000F46017C044641F01801C0681E46154673
:1070D00001F024FBE068012E036888BF47F08007B9
:1070E0009B6839469847E06801F023FBC0B9217CD2
:1070F000E068324641F0180101F00DFB2E44B54224
:1071000001D10120F8BDE06803681B699847002899
:10711000F7D0E06803685B69984705F8010BEEE774
:107120000020EFE70022027042708270C27002718C
:1071300042718271C2710272427282727047002281
:1071400041F007010170027182704270C271427297
:10715000704713B5036801AADC680123A0479DF8B6
:10716000040002B010BD38B505460A240F21284698
:10717000FFF7EFFF33284FF0010004D001F004FACD
:10718000013CF3D1204638BDF7B50C462721054612
:10719000FFF7DFFF00F00800002814BF01260026DB
:1071A0000FD02B686A46DF68282106232846B84797
:1071B000BDF800302380BDF802306380BDF8043094
:1071C000A380304603B0F0BD13B503688DF80420EA
:1071D0001C6901AA0123A04702B010BD70B5036865
:1071E0009B6804460D469847064630B902F07AFA85
:1071F000274901F024FC304670BD2A782021204622
:10720000FFF7E2FF6A7821212046FFF7DDFFAA7829
:1072100022212046FFF7D8FFEA7823212046FFF7F6
:10722000D3FF2A7924212046FFF7CEFF6A79252152
:107230002046FFF7C9FFAB791BB126212046FFF797
:1072400088FFAA7A2E212046FFF7BEFFAB785B06A7
:10725000D1D5EA7932212046FFF7B6FF2A7A3321C9
:107260002046FFF7B1FF6368002B0ADB6A7A2272BF
:1072700020463021FFF7A8FF31212046FFF769FFA4
:10728000B9E70022227230212046FFF79DFFB2E7C6
:1072900095CA0B0010B5436000230372024B0360D4
:1072A000C160027410BD00BFB0CA0B0091F85C3021
:1072B00010B50446016013B1886D00F079FE2046D8
:1072C00010BD10B5036893F85C20044612B1986DA8
:1072D00000F076FE204610BDF8B51F469DF824301C
:1072E00004460D4616462BB1012380F85C30583019
:1072F00000F04EFE089B23630023636306B1A6647F
:1073000025B1294604F1380001F00FFE069B2365E4
:10731000079BE069A4F84C70FF2BB8BFFF23A4F8CB
:10732000543008B1FDF707FCB4F85400FDF701FC38
:10733000E061F8BD2DE9FF41044600251746984657
:107340000E4602F005F90D49E56104F1380001F03F
:10735000D8FD9DF82830A564CDE90283FF220F23D4
:10736000CDE90032204684F85C503B462A4631463F
:10737000FFF7B2FF204604B0BDE8F081D7BE0B0096
:1073800010B50446204602F03FF80028FAD0204607
:1073900001F024FEC0B210BD2DE9F0470546884635
:1073A000FFF7EEFFEB691870EB6993F800A04FF060
:1073B00001090AF0F00A00274C462846FFF7E0FFD3
:1073C0002646EB69985500F07F0313FB09F31F4431
:1073D00001340306A4B2BFB24FEAC919EDD4631E4B
:1073E000BAF1300F88F800301ED12846FFF7C8FFE9
:1073F000EB6918552846FFF7C3FFF41C0236B6B2F6
:10740000EB69A4B298550226B6B2BE420ED2284607
:10741000FFF7B6FFB5F85430A34284BFEB691855A7
:107420000134A4B20136EFE70026EDE7B5F8543099
:10743000A3422CBF20460020BDE8F0872DE9F34190
:1074400015461E461A4607460023964602A802F035
:107450007F0CBEF17F0F03F10104034488BF4CF0A1
:10746000800CBEF17F0F4FEAD212E4B203F804CCD5
:107470001ED8C4F10403C4F10500E954224601A951
:10748000284405EB030802F08AFC721C22444146A2
:10749000384601F08EFD054600F0BAFD621C7862A8
:1074A0003244A8B2131A5842584102B0BDE8F081E4
:1074B0002346CAE70233F0B5054698B20023CE5CF6
:1074C0009CB256B1B5F854C0844503F1010704D904
:1074D000441C16543B46A0B2F1E799B2411A0A4443
:1074E000210A02F8021C02F8013CF0BD38B504463E
:1074F00001F0ACFE002814BF0125002502D1204672
:1075000001F0DCFF284638BD2DE9F04788B004467D
:10751000DDF840809DF850A0894617461E46FFF7CB
:10752000E5FF0546002840F0CD80214601A8FFF781
:10753000BDFEA16C002940F08880B4F84C20A16BFE
:107540002B46204601F004FE00287AD00123238434
:107550009DF85430E269042B5B4B40F08180186841
:1075600099889B79ADF80C108DF80E300290C2F816
:1075700005009DF80E30BDF80C10A2F80910D3726A
:107580000C23B8F1000F00F081809DF848009DF8B1
:107590004420400140EAC20040F00600C0B2BAF107
:1075A000000F01D100F0FD001FB1002E70D140F09E
:1075B0008000E269D054226DE169581C12120A540D
:1075C0009A1CE169206D88540333E26949462046DC
:1075D000FFF770FF0346B8F1000F0BD0E269414698
:1075E0002046FFF767FFE269139903462046FFF73D
:1075F00061FF034667B1E26939462046FFF75AFF4B
:1076000003462EB1E26931462046FFF753FF034699
:10761000053BE2699BB210212046FFF70FFF00F007
:10762000F7FCC4E909004FF47A76204601F0ECFE3D
:1076300088BB00F0EDFCA36AC01A236D7343984227
:10764000F3D9204601F03AFF35E002A801F0F2F844
:10765000B4F84C202B4602A9204601F059FE73E7EE
:10766000D3F80700D3F80B10DB7B0DF1080CACE866
:1076700003008CF8003002AB03CBC2F80500C2F85F
:1076800009109CF8003053730E237AE7022086E736
:1076900040F0C0008DE702A92046FFF77DFE0428D8
:1076A000CFD1E369DE78002ECBD100F0B1FC01250B
:1076B000A06284F82C6001A8FFF703FE284608B0FA
:1076C000BDE8F0870025F9E78CBD0B007FB50123ED
:1076D0000422CDE904320023CDE90233CDE90033A1
:1076E0001A46FFF711FF07B05DF804FB2DE9F74FCD
:1076F000DDF83C809DF834509DF8389004468B4668
:1077000016461F46FFF7F2FE8246002851D021465A
:1077100001A8FFF7CBFDB4F85420E069002102F086
:107720004CFB0523E26959462046FFF7C3FE6B1E5A
:10773000012B15D8218CE369013189B22184090A12
:107740001954421CE369218C92B20230995480B2E0
:10775000B8F1000F04D0238C5A1C2284A8F8003002
:1077600000210B188F42E2699BB20AD9B4F854C0C9
:107770009C4506D916F801C002F803C0013189B250
:10778000EFE79DF8301000290CBF30213121B9F10D
:10779000000F01D041F00801022D0ED141F004018B
:1077A000053B9BB22046FFF749FE824601A8FFF742
:1077B00088FD504603B0BDE8F08F012D08BF41F0B1
:1077C0000201EDE71FB5089C0394002402949DF884
:1077D0001C4001949DF818400094FFF787FF04B007
:1077E00010BD30B587B00446104605910492FDF7F0
:1077F00043F900250346CDE90155DDE90421009553
:107800002046FFF7DFFF07B030BD73B504460E46D4
:10781000FFF76CFE0546C8B1214601A8FFF746FDFB
:10782000E36962221A70E36902225A70E369320A3C
:107830009A70E369DE70E1690422204601F0B9FB29
:10784000051E01A818BF0125FFF73BFD284602B021
:1078500070BD73B504460E46FFF748FE0546C8B135
:10786000214601A8FFF722FDE36972221A70E3693D
:1078700002225A70E369320A9A70E369DE70E169A4
:107880000422204601F095FB051E01A818BF012522
:10789000FFF717FD284602B070BD2DE9F04F2DED22
:1078A000028B87B000AF0446FFF720FE8146F8B197
:1078B000214607F11400FFF7F9FC00F0A9FB236D46
:1078C0004FF47A725343A26A821A9A42064603D848
:1078D000626A821A934221D294F82C307BB12046FE
:1078E00001F0ECFD4FF0000907F11400FFF7E9FC8F
:1078F00048461C37BD46BDEC028BBDE8F08FE269FF
:10790000C0211170E2695370E1690222204601F042
:1079100050FBC4E90966012384F82C30204601F0AD
:1079200073FD0028E0D007F113012046FFF734FD76
:1079300083460028D8D0E369A662197801F0F002E6
:10794000302A7FD1D4F830A0BAF1000FCCD097F80C
:1079500013C06A4608EE102A03EB0C0251789578A2
:1079600005EB0125ADB205F108026946D208A1EB8D
:10797000C20295460CF10302FA6003EB020E0DEB16
:1079800005026846C7F808D07A60D7E901218A4223
:1079900006D00A461EF8018B02F8018BBA60F4E7A4
:1079A0000022425593F80080F96808F00608ABEB16
:1079B0000C02033AB8F1020FA2EB0502294425D1CB
:1079C00013F801E01944023A91F801B00CF10501F5
:1079D000294419440BEB0E2BD047E36940221A705F
:1079E000E3691FFA8BFB83F80180E3694FEA1B22EE
:1079F0009A70E36983F803B0E1690422204601F03C
:107A0000D8FA666218EE103A9D466DE7B8F1040F99
:107A100015D113F801E01944023A91F801B00CF1C4
:107A20000501294419440BEB0E2BD047E369502282
:107A30001A70E36902221FFA8BFB5A70D5E71944CA
:107A4000D047DFE7502A08D19A78D97801EB022194
:107A500089B22046FFF7D9FE46E7402A12D1626B71
:107A6000002A3FF441AFBBF1040F7FF43DAF11F0AA
:107A7000060F7FF439AF9978D87800EB012080B2F7
:107A8000904731E7602A08D19A78D97801EB022132
:107A900089B22046FFF7DDFE26E7702ADFD0902A64
:107AA0003FF422AFC02A0AD1D0221A70E369002223
:107AB0005A70E1690222204601F07BFA14E7D02ACD
:107AC00004BF002384F82C300EE7F7B504460F46B8
:107AD0001646FFF70BFD054610B3214601A8FFF738
:107AE000E5FB238C01339BB2EBB12384238CE26949
:107AF0001B0A5371E369228C9A71E26907233946A4
:107B00002046FFF7D7FCE3691E54043883B2E269CC
:107B100082212046FFF792FC054601A8FFF7D1FB22
:107B2000284603B0F0BD0123DFE70022FFF7CDBFF9
:107B30000368C9B29B68184710B50446017900680C
:107B400000F0ECFD206800F0F4FD68B1142000F0B6
:107B50001BFD2179206800F0E1FD206800F0E9FDBF
:107B6000B0FA80F0400910BD0120FCE710B50446D2
:107B700001790068012200F0CEFD206803681B69CE
:107B8000984720B1206803685B699847C0B210BD70
:107B900008B5FFF7EBFFC0F3C00008BD08B5FFF75D
:107BA000E5FFC0F3C01008BD10B5044601790068B8
:107BB00000F0B4FD2068BE21FFF7BAFF20688021E5
:107BC000FFF7B6FF20680021FFF7B2FF206800F042
:107BD000B0FDB0FA80F0400910BD10B5044601793F
:107BE000006800F09BFD2068AC21FFF7A1FF206832
:107BF0003321FFF79DFF20680021FFF799FF2068E0
:107C000000F097FDB0FA80F0400910BD38B5382378
:107C1000016003710446FFF78FFF08B9002038BDEB
:107C2000282000F0B1FC2046FFF7B2FF58B12046F3
:107C3000FFF7AEFF0028F1D0237C23F0030343F0CD
:107C400003032374EBE72046FFF7AEFF2046FFF760
:107C5000C4FF4B2000F098FC66252046FFF79EFFEE
:107C600038B10120013D00F08FFC15F0FF05F4D183
:107C7000D4E72046FFF78CFF0028D8D1CEE738B5EF
:107C80000023C0E90233017904460622006800F0AF
:107C900042FD002830D0206803685B69984720685F
:107CA00003685B6998470546206803685B699847E5
:107CB0000202206803685B6942EA05459847C3B23F
:107CC000000400F47F002B43E0601B092068A360E0
:107CD00003685B699847E36843EA0020E060206836
:107CE00003685B699847E3681843237CC0F313007B
:107CF00023F00303E060237438BD70B54679044671
:107D00002EB9FFF76AFF01236371304670BDFFF79C
:107D100045FF054620B92046FFF7B1FF6571F4E73E
:107D20000026F2E738B5037CDB07044616D5FFF7DB
:107D300054FF4B2000F028FC66252046FFF72EFF5D
:107D400048B10120013D00F01FFC15F0FF05F4D102
:107D50009FED0A0A10E02046FFF791FFD4ED037A69
:107D60009FED077A9FED070A237CFBEEC67A43F06E
:107D70000103A7EE870A237438BD00BF000000008E
:107D800000004843000048C238B5037C9B07044606
:107D900016D5FFF722FF4B2000F0F6FB66252046A4
:107DA000FFF7FCFE48B10120013D00F0EDFB15F0AE
:107DB000FF05F4D19FED090A0EE02046FFF75FFFB3
:107DC00094ED020A237CDFED067ABBEEC60A43F08F
:107DD000020320EE270A237438BD00BF0000000014
:107DE0000000C84200F0D0BB00F012B970477047E5
:107DF0007047000003065ABF024B53F820000020D2
:107E0000704700BFC4CA0B0003065ABF024B53F8A9
:107E100020000020704700BFC4CC0B0010B5064BFB
:107E200003600446006D08B100F0BAF82046FEF782
:107E30004FFC204610BD00BFCCCE0B0010B5044651
:107E4000FFF7ECFF20467021FCF777FE204610BDBF
:107E500030B585B004460D4601F018FE104A1149B0
:107E6000CDE901214FF0FF328021034600922046E8
:107E70002022FEF7A5FC0C4B23600023C4E9143537
:107E800004F15800FFF79EF804F16000FFF79AF83C
:107E900004F16800FFF796F8204605B030BD00BF3A
:107EA000801A0600A0860100CCCE0B0013B5044654
:107EB000503000F06DF8636DD90705D5022204211A
:107EC00004F15800FFF792F8636D9A0705D5002278
:107ED000032104F16000FFF789F8636D5B0705D5A6
:107EE0000222114604F16800FFF780F80123009395
:107EF0003C2202212046FEF76BFD02B010BD10B5FA
:107F0000436DD907044602D55830FFF77CF8636DFE
:107F10009A0703D504F16000FFF775F8636D5B07FE
:107F200005D504F16800BDE81040FFF76CB810BD3E
:107F300008B5024B1B68DB68019308BD48020300CB
:107F400008B5024B1B68DB69019308BD48020300BA
:107F500008B5024B1B681B6A019308BD4802030069
:107F600008B5024B1B685B6A019308BD4802030019
:107F700008B5024B1B689B6A019308BD48020300C9
:107F800008B5024B1B68DB6A019308BD4802030079
:107F900008B5024B1B681B6B019308BD4802030028
:107FA00008B5024B1B685B6B019308BD48020300D8
:107FB00008B5024B1B689B6B019308BD4802030088
:107FC00008B5024B1B681B6C019308BD48020300F7
:107FD00008B5024B1B685B6C019308BD48020300A7
:107FE00008B5024B1B681B6F019308BD48020300D4
:107FF00008B5024B1B685B68019308BD18020300BB
:1080000008B5024B1B68DB68019308BD180203002A
:1080100008B5024B1B685B69019308BD1802030099
:1080200008B5024B1B685B68019308BD2C02030076
:1080300008B5024B1B689B68019308BD2C02030026
:1080400008B5024B1B68DB68019308BD2C020300D6
:1080500008B5024B1B681B69019308BD2C02030085
:1080600008B5024B1B685B69019308BD2C02030035
:1080700008B5024B1B689B6A019308BD2C020300E4
:1080800008B5024B1B681B6B019308BD2C02030053
:1080900008B5024B1B689B6F019308BD2C020300BF
:1080A00008B5024B1B681B68019308BD280203003A
:1080B00008B5024B1B68DB68019308BD280203006A
:1080C00008B5024B1B689B69019308BD2802030099
:1080D00008B5024B1B68DB69019308BD2802030049
:1080E00008B5024B1B681B6A019308BD28020300F8
:1080F00008B5024B1B685B6A019308BD28020300A8
:1081000008B5024B1B689B6A019308BD2802030057
:1081100008B5024B1B68DB6A019308BD2802030007
:1081200008B5024B1B681B6B019308BD28020300B6
:1081300008B5024B1B685B6B019308BD2802030066
:1081400008B5024B1B681B6C019308BD2802030095
:1081500008B5024B1B681B6D019308BD2802030084
:1081600008B5024B1B685B69019308BD6C020300F4
:1081700008B5024B1B685B69019308BD64020300EC
:1081800008B5024B1B681B6A019308BD640203001B
:1081900008B5024B1B685B6A019308BD64020300CB
:1081A00008B5024B1B689B6A019308BD640203007B
:1081B00008B5024B1B689B68019308BD6802030069
:1081C00008B5024B1B68DB68019308BD6802030019
:1081D00008B5024B1B689B69019308BD3802030078
:1081E00008B5024B1B68DB69019308BD3802030028
:1081F00008B5024B1B681B6A019308BD38020300D7
:1082000008B5024B1B689B6A019308BD3802030046
:1082100008B5024B1B681B6B019308BD38020300B5
:1082200008B5024B1B689B6B019308BD3802030025
:1082300008B5024B1B681B68019308BD30020300A0
:1082400008B5024B1B685B69019308BD300203004F
:1082500008B5024B1B68DB69019308BD30020300BF
:1082600008B5024B1B681B6A019308BD300203006E
:1082700008B5024B1B685B6A019308BD300203001E
:1082800008B5024B1B68DB6B019308BD300203008D
:1082900008B5024B1B681B6C019308BD300203003C
:1082A00008B5024B1B685B6C019308BD30020300EC
:1082B00008B5024B1B68DB68019308BD3C02030054
:1082C00008B5024B1B681B69019308BD3C02030003
:1082D00008B5024B1B685B69019308BD3C020300B3
:1082E00008B5024B1B689B69019308BD3C02030063
:1082F00008B5024B1B68DB69019308BD3C02030013
:1083000008B5024B1B681B6A019308BD3C020300C1
:1083100008B5024B1B689B6A019308BD3C02030031
:1083200008B5024B1B681B6C019308BD3C0203009F
:1083300008B5024B1B681B68019308BD4C02030083
:1083400008B5024B1B681B69019308BD4C02030072
:1083500008B5024B1B685B69019308BD4C02030022
:1083600008B5024B1B689B69019308BD4C020300D2
:1083700008B5024B1B68DB69019308BD4C02030082
:1083800008B5024B1B681B6A019308BD4C02030031
:1083900008B5024B1B685B6B019308BD60020300CC
:1083A00008B5024B1B681B6D019308BD60020300FA
:1083B00008B5024B1B685B68019308BD20020300EF
:1083C00008B5024B1B685B69019308BD20020300DE
:1083D00008B5024B1B68DB6A019308BD200203004D
:1083E00008B5034B1B68D3F88830019308BD000023
:1083F0002002030008B5034B1B68D3F894300193A7
:1084000008BD00002002030008B5024B1B689B68F2
:10841000019308BD4402030008B5024B1B68DB69E9
:10842000019308BD4402030008B5024B1B68DB6BD7
:10843000019308BD4402030008B5024B1B685B684A
:10844000019308BD4002030008B5024B1B689B68FE
:10845000019308BD4002030008B5024B1B68DB68AE
:10846000019308BD4002030008B5024B1B681B695D
:10847000019308BD4002030008B5024B1B685B690D
:10848000019308BD4002030008B5024B1B689B69BD
:10849000019308BD4002030008B5024B1B68DB696D
:1084A000019308BD4002030008B5024B1B681B6A1C
:1084B000019308BD4002030008B5024B1B681B6B0B
:1084C000019308BD4002030008B5024B1B685B6BBB
:1084D000019308BD4002030008B5024B1B681B6CEA
:1084E000019308BD4002030008B5024B1B685B6C9A
:1084F000019308BD4002030008B5024B1B681B68CE
:10850000019308BD1C02030008B5024B1B685B68A1
:10851000019308BD1C02030008B5024B1B689B6851
:10852000019308BD1C02030008B5024B1B68DB6900
:10853000019308BD1C02030008B5024B1B685B6A6F
:10854000019308BD1C02030008B5024B1B681B6B9E
:10855000019308BD1C02030008B5024B1B68DB6BCE
:10856000019308BD1C02030008B5024B1B681B6C7D
:10857000019308BD1C02030008B5024B1B685B6C2D
:10858000019308BD1C0203000021FFF719BF000082
:10859000024800230360FFF71BBD00BFC4E60320B1
:1085A000002240681146FFF77FBF00224068114655
:1085B000FFF78ABF40680022FFF77EBF40680022B5
:1085C00081F00101FFF768BF002340681A46194691
:1085D000FFF75ABF002340681A461946FFF74CBF01
:1085E000002240681146FFF73FBF00224068114655
:1085F000FFF72ABF406800220221FFF72DBF0023AA
:1086000040681A46FFF718BF024B03225A60024A1D
:108610001A607047C8E603202CCF0B007047F8B5EE
:10862000064615460C468F18BC4206D0336814F82F
:10863000011B9B6830469847F6E72846F8BD007C4A
:108640000022FFF74DBD007C0021FFF751BD007CEB
:108650000021FFF755BD007C0021FFF759BD007CCC
:108660000021FFF75DBD10B514210446FCF765FA43
:10867000204610BD38B5044615464FF47A730022E3
:10868000C4E90123094B2174084623602946FFF7FA
:1086900057FDBF3008D16B69DB0705D56868FFF768
:1086A00033FFE868FFF730FF204638BD68CF0B0086
:1086B000007C0022FFF7F4BC0023007C1A46194618
:1086C000FFF7F6BC7FB500221423CDE90122ADF8F7
:1086D00004300B788DF808304B680393CB68049313
:1086E000007C0B7A059301A9FFF732FD07B05DF816
:1086F00004FB1FB5003B8DF800104FF0640103919F
:1087000018BF0123694601928DF80830FFF7DAFFA0
:1087100005B05DF804FB0123FFF7EBBF007C0022EE
:10872000FFF7CEBCC9B2FFF7F9BF007C0022FFF70C
:10873000CFBC0121FFF7F9BF704710B518210446DF
:10874000FCF7FBF9204610BDF0B5037D062B8DB07C
:108750000E4600F104074FF0000412D000F10805A6
:1087600015F8011D0A22304600F073F9AF420444A7
:1087700019D0002CF4D02E21304600F051F90444D9
:10878000EEE72F236A4639460A208DF80040FFF7AE
:10879000EFFC6846FCF770F933680246DB6869460F
:1087A00030469847044620460DB0F0BD10B5054B45
:1087B0000446112240F8043B002101F0FEFA204655
:1087C00010BD00BF90CF0B000346074A10B543F819
:1087D000042B01F1100251F8044B43F8044B914271
:1087E000F9D10A781A7010BD90CF0B00037D042BCD
:1087F00004D14068003818BF01207047062B07D10C
:1088000043683BB983682BB9C3681BB90069F1E7BA
:10881000002070470120704710B59DF8084044EAD9
:10882000032343EA024242EA0161042341600375E3
:1088300010BD000007B5064B0360CB7800938B7822
:108840004A780978FFF7E8FF03B05DF804FB00BF42
:1088500090CF0B00014B024A1A607047D0E603200C
:108860009CCF0B00002340681A46FFF7E5BD406827
:1088700000220221FFF7F0BD002240681146FFF7F9
:10888000E3BD002240681146FFF7EEBD00234068BB
:108890001A461946FFF7F0BD002340681A461946EC
:1088A000FFF7F2BD40680021FFF716BE40680021C7
:1088B000FFF71ABE4068002281F00101FFF7ECBD0E
:1088C00040680022FFF7F8BD002240681146FFF71C
:1088D000FBBD002240681146FFF7E6BD2DE9F043DD
:1088E00095B014460D460746FFF760FF00211C2295
:1088F0000DA8009101F061FA40230C9320466B46CD
:108900000CAA0021FFF75CFC044600284BD102466C
:1089100001216868FFF7A8FD0221804622466868A9
:10892000FFF7A2FD009E81462146002E3BD0002984
:1089300039D17368022B03D00A2B11D0F669F4E702
:10894000B8F1000FFAD0716906A8043107ADFFF73E
:1089500071FF0FCD3C1D0FC42B6823704146EDE71E
:10896000B9F1000FEAD07469102201A801F025FACC
:1089700006238DF8143001AD04F10803183418688B
:1089800059682A4603C20833A3421546F7D101A904
:1089900006A807ADFFF718FF0FCD3C1D0FC42B68CD
:1089A00023704946CAE70098FFF702FC384615B025
:1089B000BDE8F083024B034A1A6000225A607047F8
:1089C000D4E60320A8CF0B00F8B506460D468F1855
:1089D0000024BD420CD0336815F8011B9B6830465B
:1089E0009847031E01DB1C44F3E7002C08BF1C461C
:1089F0002046F8BD13B50446084659B10191FCF76D
:108A00003BF823680199DB680246204602B0BDE8C6
:108A10001040184702B010BD08B5FFF7EBFF08BDC6
:108A200003689B68184738B50D210546FFF7F8FF26
:108A30000A2104462846FFF7F3FF204438BD38B525
:108A40000546FFF7D7FF04462846FFF7ECFF204412
:108A500038BD30B58BB00023012A8DF8243098BF83
:108A60000A2209AC0D46B1FBF2F101FB125303F0EF
:108A7000FF03092B94BF30333733DBB2AA4204F82B
:108A8000013DEFD92146FFF7B5FF0BB030BD000027
:108A90002DE9F74F55EC104B06460F4610EE102A05
:108AA00010EE100A2B462946FBF710FF40B1534940
:108AB0003046FFF79FFF8246504603B0BDE8F08F77
:108AC00025F000494E4B4FF0FF3220464946FBF758
:108AD000FDFE48B94A4B4FF0FF3220464946FBF7AE
:108AE000D7FE08B94749E3E7474B4FF060422046BD
:108AF0002946FBF7E1FE08B14449D9E7444B4FF062
:108B0000604220462946FBF7B9FE0028F4D1002236
:108B1000002320462946FBF7B1FED0B12D21304677
:108B2000FFF77EFF05F1004382461D463949DFF815
:108B3000EC904FF0000B00204FF000085FFA8BF331
:108B40009F4208D942464B46FBF750FD0BF1010B03
:108B5000F4E78246EAE722462B46FBF767FA0D4622
:108B60000446FBF7F1FE8046FBF79CFB02460B46F2
:108B700020462946FBF758FA0A2204460D4630469D
:108B80004146FFF766FF8244002F95D02249DFF867
:108B90008C903046FFF72EFF4FF000088244002FE4
:108BA0008AD042464B4620462946FBF7F5FB044651
:108BB0000D46FBF7A1FEB0F1000B1CDA2D2130466B
:108BC000FFF72EFFCBF1000103460A223046019346
:108BD000FFF73FFF019B184482445846FBF772FBA6
:108BE00002460B4620462946FBF71EFA013F044683
:108BF0000D46FFB2D3E759460023E6E7DCCF0B0072
:108C0000FFFFEF7FE0CF0B00FFFFEF41E4CF0B0052
:108C1000FFFFEFC10000E03F54BE0B000000244006
:108C200038B5044610EE100ACDB2FBF75DFB41ECFF
:108C3000100B29462046BDE83840FFF729BFC9B2CE
:108C4000FFF726BF2DE9F04186B000AF05460E467E
:108C5000381D142114463B60FFF76EFC13280ED814
:108C6000391D2846FFF7C6FE04461EB12846FFF709
:108C7000DAFE044420461837BD46BDE8F08100F115
:108C8000080323F00703E846ADEB030D2246411C21
:108C90003B686846FFF750FC69462846FFF7AAFE86
:108CA0000446C546E1E70000014B00229A60704788
:108CB000DCE603200021FFF7F3BA0021FFF7E8BA52
:108CC00010B5044608462170FFF7C2FA002363601E
:108CD000204610BD13B504460078FFF7EEFF58B9E3
:108CE000207801904FF6FF71FFF7A2FA019802B0C9
:108CF000BDE81040FFF7DEBF02B010BD0078FFF7FF
:108D0000D9BF0000400830B51860002418688842B8
:108D1000E5B206D90134082C02D040081860F5E706
:108D20000725024B5B5D137030BD00BFE8CF0B0021
:108D30002DE9F04306468FB000780C46FFF7BDFFE3
:108D400000281BDB35781422002109A801F035F832
:108D50000B23002209A92846ADF82430FFF788FA32
:108D60009DF82D3013B19DF82C5055B10027B94610
:108D7000B846012523795DB1C3B100200FB0BDE82D
:108D8000F083DDF830809DF834909DF83570F1E780
:108D9000002B35D1A368434508D18DF820908DF87C
:108DA0002170BDF82020A3899A42E6D00023A16853
:108DB0008DF80F300A9804AB0DF10F02FFF7A2FFF8
:108DC000217985B989B9A36843450ED38DF82090E0
:108DD0008DF82170BDF82020A3899A4205D1049B0B
:108DE000434502D1C9E70029F9D100230193637BF0
:108DF00000939DF80F20237B3078FFF741FABCE702
:108E0000CDE900552B462A460121F5E708B5007843
:108E1000FFF716FAC0B208BD10B50446FFF7F8F820
:108E2000E060236820465B699847002808DAFFF76E
:108E3000EFF8E368C01AA3689842F2D34FF0FF300E
:108E400010BD2DE9F04107460C468E180D46B5427F
:108E5000A5EB040807D03846FFF7DEFF031E02DB50
:108E600005F8013BF3E74046BDE8F08110B5044644
:108E70000068FFF749FB204610BD10B504460068A6
:108E800008B1FFF741FB0023C4E90133236010BDA3
:108E900038B504460D4600680131FFF73DFB10B1BF
:108EA000C4E90005012038BD10B50368044623B1AC
:108EB00043688B4201D3012010BD2046FFF7E8FF35
:108EC0000028F9D0A368002BF5D122681370F2E7CF
:108ED00037B50D46114601920446FFF7E5FF019AAA
:108EE00028B92046FFF7C9FF204603B030BDA26075
:108EF0002946206800F053FF2268A3680021D1545E
:108F0000F2E7002313B5C0E900330446836003731E
:108F100041B108460191FBF7AFFD01990246204699
:108F2000FFF7D6FF204602B010BD13B5044659B175
:108F300008460191FBF7A0FD019902462046FFF784
:108F4000C7FF204602B010BDFFF797FFF9E708B54D
:108F500082683AB921B10878B0FA80F0400900E09F
:108F6000012008BD006809B90078F5E7FBF77AFD34
:108F7000F2E70000054B02221A60054B054A9A6091
:108F80000020C3E90000FFF713BA00BFF8E6032092
:108F9000ECE603200000FFFF13B503688DF807100F
:108FA000DC6B01224FF0FF330DF10701A04702B047
:108FB00010BD10B40368DC6B4FF0FF33A4465DF8BE
:108FC000044B604713B5134602688DF80710D46B45
:108FD0000DF107010122A04702B010BD10B5436991
:108FE000B3F88620B3F884309A42044608D0636907
:108FF000B3F88420511CA3F884101344187910BDD1
:1090000003681B6998470028F1D14FF0FF30F6E75D
:10901000704743691868C043C00F7047704700002D
:10902000064B994210B500F10C0405D0084600F03B
:1090300093FD002808BF0024204610BD1CCF0B0064
:1090400010B5AC210446FBF778FD204610BDAC21DD
:10905000FBF773BD2DE9F0414FF0000886B01C46C8
:10906000C0F8048005460E4617464146102202A865
:1090700000F0A3FE631C09D04FF47A73B4FBF3F243
:1090800003FB1244CDE902285C4304946869102371
:109090000093006802AB41F2050240F6FF71FFF752
:1090A00097F8002807DAFFF757FA03686B6000208B
:1090B00006B0BDE8F0816869002300683A46314691
:1090C000FFF7A6F8031EEEDB1846F1E738B5846912
:1090D0000A4B036005467CB16368013B63605BB982
:1090E000236820469B689847A368013BA3601BB98F
:1090F00023682046DB689847284638BD2CD00B00F3
:1091000010B50446FFF7E2FF20461C21FBF715FDD2
:10911000204610BD30B587B0044601AD6846FFF764
:1091200089FB0FCD04340FC42B68237007B030BD0A
:1091300070B54D69054B04468C3544F8043B064632
:109140000FCD0FC42B682370304670BD90CF0B003D
:109150002DE9F0439846036893B00D460024DB6A7E
:1091600006461746984728466B46224621460094F5
:10917000FFF726F80546002863D1009B002B4BD053
:109180005B69002B48D006A8FFF710FB009B5C69C9
:109190006378022B04D1211D06A8FFF7BBFF26E050
:1091A0000A2B24D11122294601A800F006FEA3684B
:1091B000002B38D004F108030DF1040C18341868A2
:1091C0005968624603C20833A3429446F7D1062386
:1091D00001A90CA88DF81430FFF7F6FA0DF1340C44
:1091E000BCE80F0007AC0FC4DCF80030237006A801
:1091F000FFF7FCFA80B1336807ADD3F82090124B2B
:109200000C930FCD0DAC0FC42B6823703A46434628
:109210000CA93046C84705460098FEF7C9FF284606
:1092200013B0BDE8F083E368002BC3D14FF6FF70A5
:10923000D4F81090FEF7A4FF8145BBD104F11401CE
:10924000AAE72546E8E700BF90CF0B0038B5436991
:109250001A68002A054610DAB3F88620B3F884307D
:109260009A420AD103681B699847044628B92B68BB
:109270002846DB6A9847204638BD0120FCE710B538
:109280004369B3F88620B3F884309A42044605D087
:109290006369B3F884201344187910BD03681B690F
:1092A00098470028F4D14FF0FF30F6E7F8B543694E
:1092B0001746B3F88620B3F884309A4205460E4626
:1092C00016D06969B1F88430B1F88640E41ABC421E
:1092D00028BF3C46043322461944304600F05FFD67
:1092E0006A69B2F884302344A2F884302046F8BD7D
:1092F00003681B6998470028E3D14FF0FF34F5E776
:1093000042690023A2F884304269A2F8863070478F
:109310002DE9F0411F4603680C46DB6A8AB005461A
:1093200016469847237DD5F81480042B0CBF0220E5
:109330000A2006220121FEF773FFC8F800006B69BE
:109340001B68002B08DA2B682846DB6A0024984744
:1093500020460AB0BDE8F0812846FFF7D1FFB7B13B
:10936000002303A9F8B20393ADF81030FEF7F8FE1E
:109370000028E8D1686906230093006803AB41F236
:109380000B0240F6FF71FEF723FF0028DBD11C2201
:10939000002103A800F011FD237D042B1DD14FF403
:1093A00007733046ADF80C30FEF7FAFEADF80E004C
:1093B0006068FEF7E5FE04906B691C22186803A93B
:1093C000FEF716FF0028BED104340FCC6D698C3532
:1093D0000FC523682B700124BAE740F61C233046E2
:1093E000ADF80C30FEF7DCFE05AEADF80E00231D27
:1093F00004F1140718685968324603C20833BB42A7
:109400001646F7D1D8E7000030B54269B2F8863089
:109410008BB004462BB1B2F884209A4201D1FFF7F9
:109420006FFF61690868002818DBB1F886507F2D4E
:1094300014D804310823C5F180022944FEF7E0FE68
:10944000002813DD6369B3F886200AB9A3F88420E5
:109450006369B3F886201044A3F886006369B3F803
:109460008600B3F88430C01A0BB030BDFFF774F833
:1094700003680B2BF2D0FFF76FF803680B2BEDD0CE
:1094800020230025CDE90235FFF766F80368019334
:10949000084B0949009302AA2B463220FEF780FFB1
:1094A00063691868FEF79CFE63694FF0FF321A602B
:1094B000D4E700BFF7CF0B00F0CF0B0010B5436926
:1094C00004461868002801DBFEF78AFE63694FF046
:1094D000FF321A606069112200218C3000F06DFCAF
:1094E0002046BDE81040FFF70BBF10B5002304462F
:1094F0000160C0F884308830FFF758F9204610BD6D
:1095000073B500234FF47A72C0E901320E4A036149
:10951000026043610446AC200191FBF708FB051E85
:1095200005F10C0608D00123C5E90133074B019969
:109530002B603046FFF7D9FF2046C4E90565FFF7E9
:10954000DFFE02B070BD00BF2CD00B0010D00B00AE
:1095500010B54FF0FF310446FFF7D2FF204610BD93
:1095600010B504460068002801DBFEF739FE2046EE
:1095700010BD0C30FFF7F4BF024B1A68024B1A60A3
:10958000704700BF14E30320FCE6032070474174DA
:10959000704708B5007CFEF7BBFE20EAE07008BD0E
:1095A00008B5007CFEF78CFE20EAE07008BD08B527
:1095B000007CFEF795FE40EAE07008BD08B5007C2F
:1095C000FEF786FE40EAE07008BD007CFEF790BE24
:1095D00037B5457C04462DB1207C03B0BDE8304052
:1095E000FEF766BE007C0191FEF792FE002801990D
:1095F000F2DC284603B030BD10B514210446FBF759
:109600009CFA204610BD000010B54FF47A73044652
:10961000084611460022C4E90123044B23600123BC
:1096200020746374FEF77CFE204610BD94D00B00BE
:10963000417470477047704708B50021007CFEF701
:109640008FFE40EAE07008BD08B50121007CFEF7FE
:1096500087FE40EAE07008BD08B5007CFEF778FEA2
:1096600020EAE07008BD08B5007CFEF769FE20EA3C
:10967000E07008BD13B50446007C0191FEF768FE5A
:109680000028019901DC607C20B1207CFEF770FE8F
:1096900020EAE07002B010BD007CFEF771BE10B58C
:1096A00014210446FBF749FA204610BD10B54FF4CB
:1096B0007A73044608460021C4E90113044B236071
:1096C0000123207463741146FEF732FE204610BD5C
:1096D000C4D00B0010B514220446002100F06DFB2D
:1096E000204610BD10B50F4C88B003A8FFF7F2FF5D
:1096F0002178BFF35B8F11F001010FD1204601915A
:10970000FBF72AFA019948B103AA0748FFF7CEFFF1
:109710002046FBF726FA054800F030FB024808B067
:1097200010BD00BF00E7032004E7032035960B00BF
:10973000002240681146FEF797BE0022406811469D
:10974000FEF7B2BE002240681146FEF7BDBE40687B
:109750000022FEF7B1BE4068002281F00101FEF751
:109760009BBE002340681A461946FEF78DBE0023B3
:1097700040681A461946FEF77FBE0022406811462F
:10978000FEF762BE406800220221FEF765BE00239C
:1097900040681A46FEF750BE024B04225A60024A45
:1097A0001A60704718E70320F4D00B00014B1860D3
:1097B000704700BF18E3032008B50B4B43B1FFF718
:1097C00091FF03681B699847002801DDAFF3008013
:1097D000064B43B100F09AF903681B6998470028CB
:1097E00001DDAFF3008008BD0000000000000000B4
:1097F00008B5FFF7E1FFFEF70BFC014B186008BD51
:1098000028E703200548064A064908B5121A00F061
:10981000C6FA054B054A1A6008BD00BF00F40320D4
:1098200004F4032004D80B0000F403201E1C279A24
:1098300007B5002300931A466FF07701FEF7DAFDB3
:1098400003B05DF804FB000007B543880A2B08D07D
:10985000502B0BD1094B1B684BB103B05DF804EBE7
:109860001847FFF7E5FF03B05DF804FB0023009302
:109870001A466FF07701FEF7BDFDF4E724E70320F9
:1098800010B512480021FEF777FE114B1A68114BF4
:109890009A42114B0CBF012200221A7001D0FFF72F
:1098A000B1FFFEF7A5FB044600F090FA0B4B13B195
:1098B0002046AFF3008000210848FEF7B5FDBDE863
:1098C000104007480021FEF78BBD00BFAD970B008D
:1098D00000F403201E1C279A20E70320000000004C
:1098E00049980B00232813B502D9002002B010BDFF
:1098F000A0F10B03022B1AD8174C2178BFF35B8F12
:1099000011F001010BD120460191FBF725F90199D6
:1099100028B11248FFF7D4F92046FBF722F90F4B84
:109920001878FEF79DFC0028DFD10120DEE7012832
:1099300009D800F0ABF80021007CFEF7F9FB80F0BD
:109940000100C0B2D2E709380128EED800F0DEF8F5
:10995000007CFEF7D5FCF2E7B8E60320BCE6032066
:10996000232838B504460D460AD8FF2908D0FFF74A
:10997000B9FF28B129462046BDE83840FEF758BB5C
:1099800038BD38B504460D46FEF75AFBFF2810D007
:10999000062804D84D2323FA00F0C30709D4204633
:1099A000FFF7A0FF28B129462046BDE83840FEF762
:1099B0004FBB38BD10B50446FEF742FB031FDBB2B8
:1099C000012B08D92046FFF78DFF20B12046BDE8C6
:1099D0001040FEF745BB002010BD0D2810B5044611
:1099E0009CBF0E34A4B22046FFF77CFF50B1032188
:1099F0002046FEF715FB032804D12046BDE81040A1
:109A0000FEF73EBB002010BD38B504460D46FFF7FB
:109A100069FFF0B104212046FEF702FB042805D1BE
:109A2000A9B22046BDE83840FEF722BB02212046FD
:109A3000FEF7F6FA02280CD12046FEF701FB0128BA
:109A400001D0042805D129462046BDE83840FEF75C
:109A50001FBB38BD7047000038B50A4B03600123B7
:109A6000044643610849202000F074F82025606016
:109A70000549A560284600F06DF8C4E903052046B5
:109A800038BD00BF1800010028D10B0030B50E4DC5
:109A90002978BFF35B8F11F0010487B011D12846FC
:109AA000FBF75AF868B16846FFF7D6FF6A462146C9
:109AB0000648FEF7DFFD2846FBF753F8044800F0A0
:109AC0005DF9024807B030BD2CE7032030E70320E2
:109AD000559A0B007047000038B5044614252A46F5
